:020000040800F2
:1000000000900020BD53000869510008715100089C
:1000100000000000000000000000000000000000E0
:1000200000000000000000000000000091450008F2
:100030000000000000000000B1460008F94600087A
:100040000D5400080D5400080D5400080D5400080C
:100050000D5400080D5400080D5400080D540008FC
:100060000D5400087951000891510008B55100085D
:100070000D5400080D5400080D5400080D540008DC
:100080000D5400080D5400080D5400080D540008CC
:100090000D5400080D540008F15100080D540008DB
:1000A0000D5400080D5400080D54000809520008B2
:0C00B00021520008395200080D540008CD
:1000C000002243088B4274D303098B425FD3030A97
:1000D0008B4244D3030B8B4228D3030C8B420DD3AA
:1000E000FF22090212BA030C8B4202D31212090238
:1000F00065D0030B8B4219D300E0090AC30B8B4276
:1001000001D3CB03C01A5241830B8B4201D38B0323
:10011000C01A5241430B8B4201D34B03C01A5241C8
:10012000030B8B4201D30B03C01A5241C30A8B420B
:1001300001D3CB02C01A5241830A8B4201D38B02F6
:10014000C01A5241430A8B4201D34B02C01A52419A
:10015000030A8B4201D30B02C01A5241CDD2C3090C
:100160008B4201D3CB01C01A524183098B4201D388
:100170008B01C01A524143098B4201D34B01C01A73
:10018000524103098B4201D30B01C01A5241C308EB
:100190008B4201D3CB00C01A524183088B4201D35A
:1001A0008B00C01A524143088B4201D34B00C01A46
:1001B0005241411A00D20146524110467047FFE7B2
:1001C00001B5002000F0F0F802BDC0460029F7D0CC
:1001D00076E7704703460B437FD4002243088B42E7
:1001E00074D303098B425FD3030A8B4244D3030BBE
:1001F0008B4228D3030C8B420DD3FF22090212BA83
:10020000030C8B4202D31212090265D0030B8B42FE
:1002100019D300E0090AC30B8B4201D3CB03C01AE8
:100220005241830B8B4201D38B03C01A5241430BC3
:100230008B4201D34B03C01A5241030B8B4201D3B3
:100240000B03C01A5241C30A8B4201D3CB02C01A1E
:100250005241830A8B4201D38B02C01A5241430A96
:100260008B4201D34B02C01A5241030A8B4201D385
:100270000B02C01A5241CDD2C3098B4201D3CB012C
:10028000C01A524183098B4201D38B01C01A5241DB
:1002900043098B4201D34B01C01A524103098B42DF
:1002A00001D30B01C01A5241C3088B4201D3CB00CA
:1002B000C01A524183088B4201D38B00C01A5241AD
:1002C00043088B4201D34B00C01A5241411A00D25D
:1002D00001465241104670475DE0CA0F00D04942C6
:1002E000031000D34042534000229C4603098B4236
:1002F0002DD3030A8B4212D3FC22890112BA030ABE
:100300008B420CD3890192118B4208D3890192113F
:100310008B4204D389013AD0921100E08909C309C4
:100320008B4201D3CB01C01A524183098B4201D3C6
:100330008B01C01A524143098B4201D34B01C01AB1
:10034000524103098B4201D30B01C01A5241C30829
:100350008B4201D3CB00C01A524183088B4201D398
:100360008B00C01A5241D9D243088B4201D34B00B3
:10037000C01A5241411A00D20146634652415B10F5
:10038000104601D34042002B00D5494270476346D6
:100390005B1000D3404201B5002000F005F802BD1B
:1003A0000029F8D016E770477047C046002B11D1DE
:1003B000002A0FD1002900D1002802D00021C94312
:1003C000080007B4024802A14018029003BDC046CD
:1003D000D9FFFFFF03B4684601B5029805F018F88D
:1003E000019B9E4602B00CBC7047C04610B5002968
:1003F00003D100F007F8203002E0080000F002F816
:1004000010BDC0461C2101231B04984201D3000CDF
:1004100010391B0A984201D3000A08391B09984277
:1004200001D30009043902A2105C40187047C0468D
:1004300004030202010101010000000000000000AD
:100440000448054B10B5834203D0044B002B00D069
:10045000984710BD10000020100000200000000090
:1004600006480749091A8B10C90FC91810B5491059
:1004700003D0044B002B00D0984710BD1000002083
:10048000100000200000000010B5074C2378002B5E
:1004900009D1FFF7D5FF054B002B02D0044800E03F
:1004A00000BF0123237010BD1000002000000000D9
:1004B000A8550008054B10B5002B03D0044905488A
:1004C00000E000BFFFF7CCFF10BDC04600000000F9
:1004D00014000020A855000803008218934200D1A0
:1004E000704719700133F9E770B500260C4C0D4DBB
:1004F000641BA410A64209D1002605F055F80A4C49
:100500000A4D641BA410A64205D170BDB300EB5880
:1005100098470136EEE7B300EB5898470136F2E70B
:1005200078560008785600087C560008785600086F
:1005300080B500AFC046BD4680BD80B582B000AF7B
:1005400078607B68002B01D101234AE07B683D2263
:100550009B5CDBB2002B07D17B683C2200219954C5
:100560007B68180000F041F87B683D220221995415
:100570007B681A687B6804331900100000F0C2F928
:100580007B684822012199547B683E2201219954BD
:100590007B683F22012199547B68402201219954B4
:1005A0007B684122012199547B68422201219954A0
:1005B0007B684322012199547B684422012199548C
:1005C0007B684522012199547B6846220121995478
:1005D0007B684722012199547B683D22012199546F
:1005E00000231800BD4602B080BD80B582B000AFC8
:1005F0007860C046BD4602B080BD000080B584B0C2
:1006000000AF78607B683D229B5CDBB2012B01D0A0
:10061000012342E07B683D22022199547B681B68DC
:10062000DA687B681B6801210A43DA607B681B6813
:100630001C4A93420FD07B681A688023DB059A42DC
:1006400009D07B681B68184A934204D07B681B68FA
:10065000164A934216D17B681B689B68144A134064
:10066000FB60FB68062B16D0FA6880235B029A4277
:1006700011D07B681B681A687B681B6801210A43DC
:100680001A6008E07B681B681A687B681B68012198
:100690000A431A6000E0C04600231800BD4604B0BB
:1006A00080BDC046002C01400004004000400140D5
:1006B0000700010080B584B000AF78607B681B68DC
:1006C000DB68FB607B681B681B69BB60BB68022240
:1006D000134021D0FB68022213401DD07B681B68A9
:1006E000032252421A617B6801221A777B681B68D9
:1006F0009B690322134004D07B68180000F0EAF8DD
:1007000007E07B68180000F0DDF87B68180000F057
:10071000E9F87B6800221A77BB680422134022D0D4
:10072000FB68042213401ED07B681B6805225242DE
:100730001A617B6802221A777B681B689A69C0235A
:100740009B00134004D07B68180000F0C3F807E05A
:100750007B68180000F0B6F87B68180000F0C2F85B
:100760007B6800221A77BB680822134021D0FB68FF
:10077000082213401DD07B681B68092252421A616F
:100780007B6804221A777B681B68DB6903221340AD
:1007900004D07B68180000F09DF807E07B68180023
:1007A00000F090F87B68180000F09CF87B6800224D
:1007B0001A77BB681022134022D0FB681022134026
:1007C0001ED07B681B68112252421A617B68082286
:1007D0001A777B681B68DA69C0239B00134004D03A
:1007E0007B68180000F076F807E07B68180000F0DE
:1007F00069F87B68180000F075F87B6800221A77AA
:10080000BB68012213400CD0FB680122134008D0C2
:100810007B681B68022252421A617B68180004F050
:1008200019F8BB688022134004D1BA6880239B0169
:1008300013400BD0FB688022134007D07B681B68F5
:100840001E4A1A617B68180000F0F2F8BA6880232B
:100850005B0013400BD0FB688022134007D07B68FD
:100860001B68174A1A617B68180000F0E9F8BB683A
:10087000402213400CD0FB684022134008D07B6814
:100880001B68412252421A617B68180000F032F85E
:10089000BB68202213400CD0FB682022134008D0F4
:1008A0007B681B68212252421A617B68180000F0A5
:1008B000B7F8C046BD4604B080BDC0467FDFFFFF2D
:1008C000FFFEFFFF80B582B000AF7860C046BD4636
:1008D00002B080BD80B582B000AF7860C046BD4632
:1008E00002B080BD80B582B000AF7860C046BD4622
:1008F00002B080BD80B582B000AF7860C046BD4612
:1009000002B080BD80B584B000AF786039607B688C
:100910001B68FB607B683B4A934208D07A6880235F
:10092000DB059A4203D07B68374A934208D1FB68C3
:1009300070229343FB603B685B68FA681343FB607B
:100940007B68304A934218D07A688023DB059A424C
:1009500013D07B682C4A93420FD07B682B4A93427A
:100960000BD07B682A4A934207D07B68294A93427E
:1009700003D07B68284A934208D1FB68274A13407A
:10098000FB603B68DB68FA681343FB60FB6880220E
:1009900093431A003B685B691343FB607B68FA680A
:1009A0001A603B689A687B68DA623B681A687B6801
:1009B0009A627B68134A93420BD07B68144A934235
:1009C00007D07B68134A934203D07B68124A934254
:1009D00003D13B681A697B681A637B6801225A61FC
:1009E0007B681B6901221340012B06D17B681B69C0
:1009F000012293431A007B681A61C046BD4604B0C9
:100A000080BDC046002C0140000400400020004092
:100A1000004001400044014000480140FFFCFFFF4E
:100A200080B582B000AF7860C046BD4602B080BDE0
:100A300080B582B000AF7860C046BD4602B080BDD0
:100A400080B582B000AF7860C046BD4602B080BDC0
:100A500080B582B000AF78607B68002B01D10123A4
:100A600056E07B685B7FDBB2002B06D17B680022FF
:100A70001A777B68180003F079FF7B6802225A77A7
:100A80007B681B79002B0CD17B681B68224A5A615A
:100A90007B681B689A687B681B6818218A439A6088
:100AA0000BE07B6899687B68DA687B68180000F067
:100AB00035F8031E01D001232AE07B685B79002B07
:100AC00005D17B681B68012252421A6104E07B68F1
:100AD0001B687A6812691A617B681B689B686022D0
:100AE000934319007B685A697B681B680A439A60C4
:100AF0007B681B689B688022934319007B689A6916
:100B00007B681B680A439A607B6801225A7700233E
:100B10001800BD4602B080BDB71DC10480B586B0C7
:100B200000AFF860B9607A6017217B1800221A7054
:100B30001F233B61BB680122134003D17B180122B4
:100B40001A7045E0C0463B695A1E3A61002B08D036
:100B50003B691F221340BA68DA4013000122134098
:100B6000F1D07B68182B0FD07B68182B24D87B68BA
:100B7000102B11D07B68102B1ED87B68002B20D047
:100B80007B68082B10D017E03B69062B1BD9172375
:100B9000FB1801221A7016E03B69072B15D91723A1
:100BA000FB1801221A7010E03B690F2B0FD9172395
:100BB000FB1801221A700AE01723FB1801221A7091
:100BC00006E0C04604E0C04602E0C04600E0C04681
:100BD0001723FB181B78002B0ED1FB681B68BA6823
:100BE0005A61FB681B689B68182293431900FB68D5
:100BF0001B687A680A439A601723FB181B78180051
:100C0000BD4606B080BD000080B500AF034B9A68BA
:100C1000E023DB0113401800BD4680BD00100240F8
:100C200080B588B000AF78607B68002B01D10123CC
:100C3000FEE27B681B680122134000D17CE0C34BBD
:100C40009B6838221340BB61C04BDB680322134012
:100C50007B61BB69102B02D17B69032B02D0BB697E
:100C6000082B0BD1B94B1A6880239B02134062D02A
:100C70007B685B68002B5ED10123D9E27B685A68F0
:100C800080235B029A4207D1B04B1A68AF4B802198
:100C900049020A431A6020E07B685A68A023DB02FD
:100CA0009A420ED1A94B1A68A84B8021C9020A4367
:100CB0001A60A64B1A68A54B802149020A431A60A4
:100CC0000BE0A24B1A68A14BA1490A401A609F4B46
:100CD0001A689E4B9F490A401A607B685B68002B2C
:100CE00014D001F01FFB03003B6108E001F01AFB88
:100CF00002003B69D31A642B01D9032398E2934B7A
:100D00001A6880239B021340F0D015E001F00AFB23
:100D100003003B6108E001F005FB02003B69D31AC8
:100D2000642B01D9032383E2884B1A6880239B023A
:100D30001340F0D100E0C0467B681B6802221340DC
:100D400000D199E0814B9B6838221340BB617F4BF7
:100D5000DB68032213407B61BB69102B02D17B69E6
:100D6000022B02D0BB69002B35D1784B1A68802347
:100D7000DB00134005D07B68DB68002B01D1012329
:100D800056E2724B5B68744A134019007B685B69DA
:100D90001A026E4B0A435A60BB69002B12D16B4B8F
:100DA0001B686E4A134019007B681A69674B0A4337
:100DB0001A60664B1B68DB0A07221340684ADA4058
:100DC000684B1A60684B1B68180004F071FA031E28
:100DD00051D001232CE27B68DB68002B30D05B4BC9
:100DE0001B685E4A134019007B681A69574B0A4317
:100DF0001A60564B1A68554B802149000A431A6005
:100E000001F090FA03003B6108E001F08BFA020068
:100E10003B69D31A022B01D9032309E24B4B1A6811
:100E20008023DB001340F0D0484B5B684A4A1340F4
:100E300019007B685B691A02444B0A435A601BE045
:100E4000424B1A68414B49490A401A6001F06AFA5C
:100E500003003B6108E001F065FA02003B69D31A28
:100E6000022B01D90323E3E1384B1A688023DB000E
:100E70001340F0D100E0C0467B681B680822134095
:100E800047D0324B9B6838221340182B0AD12F4B86
:100E90001B6E022213403CD07B689B69002B38D12B
:100EA0000123C5E17B689B69002B19D0274B1A6E83
:100EB000264B01210A431A6601F034FA03003B6114
:100EC00008E001F02FFA02003B69D31A022B01D986
:100ED0000323ADE11D4B1B6E02221340F1D018E03D
:100EE0001A4B1A6E194B01218A431A6601F01AFA3D
:100EF00003003B6108E001F015FA02003B69D31AD8
:100F0000022B01D9032393E1104B1B6E02221340E5
:100F1000F1D17B681B680422134000D1C6E01F2377
:100F2000FB1800221A70094B9B6838221340202BB3
:100F30001ED1064BDB6D0222134000D1B6E07B6868
:100F40009B68002B00D0B1E0012371E1001002404A
:100F5000FFFFFEFFFFFFFBFFFF80FFFFFFC7FFFF5D
:100F60000024F4000000002004000020FFFEFFFF2A
:100F7000B14BDA6B80235B05134001D1012300E004
:100F80000023002B11D0AC4BDA6BAB4B8021490511
:100F90000A43DA63A84BDA6B80235B051340FB60DE
:100FA000FB681F23FB1801221A70A44B1A688023C8
:100FB0005B0013401AD1A14B1A68A04B8021490055
:100FC0000A431A6001F0AEF903003B6108E001F04A
:100FD000A9F902003B69D31A022B01D9032327E1A7
:100FE000964B1A6880235B001340F0D07B689B68A7
:100FF000012B06D1904BDA6D8F4B01210A43DA6544
:101000001CE07B689B68052B0CD18B4BDA6D8A4BFF
:1010100004210A43DA65884BDA6D874B01210A43C4
:10102000DA650BE0844BDA6D834B01218A43DA6584
:10103000814BDA6D804B04218A43DA657B689B68BB
:10104000002B14D001F06EF903003B6109E001F0C0
:1010500069F902003B69D31A794A934201D9032303
:10106000E6E0754BDB6D02221340F0D013E001F097
:1010700059F903003B6109E001F054F902003B69B2
:10108000D31A6F4A934201D90323D1E06A4BDB6D37
:1010900002221340F0D11F23FB181B78012B05D12E
:1010A000654BDA6B644B67490A40DA637B68DB693E
:1010B000002B00D1BBE0604B9B6838221340102B03
:1010C00000D17BE07B68DB69022B56D15A4B1A6852
:1010D000594B5D490A401A6001F024F903003B6155
:1010E00008E001F01FF902003B69D31A022B01D975
:1010F00003239DE0504B1A6880239B041340F0D1DA
:101100004D4BDB68514A134019007B681A6A7B68B3
:101110005B6A1A437B689B6A1B021A437B68DB6A23
:101120001A437B681B6B1A437B685B6B1A43424B09
:101130000A43DA60404B1A683F4B802149040A4356
:101140001A603D4BDA683C4B802149050A43DA605E
:1011500001F0E8F803003B6108E001F0E3F8020069
:101160003B69D31A022B01D9032361E0324B1A6881
:1011700080239B041340F0D059E02F4B1A682E4B6C
:1011800031490A401A6001F0CDF803003B6108E0E4
:1011900001F0C8F802003B69D31A022B01D90323DE
:1011A00046E0254B1A6880239B041340F0D1224B64
:1011B000DA68214B26490A40DA6038E07B68DB694F
:1011C000012B01D1012333E01B4BDB687B617B6981
:1011D00003221A407B681B6A9A4226D17B697022DF
:1011E0001A407B685B6A9A421FD17A69FE23DB0151
:1011F0001A407B689B6A1B029A4216D17A69F823CF
:101200009B031A407B68DB6A9A420ED17A69E0231D
:101210001B051A407B681B6B9A4206D17B695B0FEA
:101220005A077B685B6B9A4201D0012300E00023E0
:101230001800BD4608B080BD00100240007000409C
:1012400088130000FFFFFFEFFFFFFFFE8C80C1113E
:10125000FCFFFEEE80B584B000AF786039607B683B
:10126000002B01D10123E9E0764B1B6807221340D4
:101270003A689A421ED9734B1B68072293431900A0
:10128000704B3A680A431A6001F04CF80300FB60A7
:1012900009E001F047F80200FB68D31A6A4A93425A
:1012A00001D90323CAE0674B1B68072213403A6841
:1012B0009A42EED17B681B680222134015D07B68EE
:1012C0001B680422134006D0604B9A685F4BE021F4
:1012D000C9010A439A605D4B9B685D4A134019003F
:1012E0007B689A68594B0A439A607B681B680122A5
:1012F000134057D07B685B68012B07D1534B1A68AA
:1013000080239B0213402BD1012397E07B685B680D
:10131000022B07D14D4B1A6880239B0413401FD129
:1013200001238BE07B685B68002B07D1474B1A6871
:101330008023DB00134013D101237FE07B685B68CF
:10134000032B06D1414B1B6E0222134008D101230F
:1013500074E03E4BDB6D0222134001D101236DE0AE
:101360003A4B9B680722934319007B685A68374BB6
:101370000A439A6000F0D6FF0300FB6009E000F02A
:10138000D1FF0200FB68D31A2F4A934201D90323ED
:1013900054E02E4B9B6838221A407B685B68DB0068
:1013A0009A42ECD1274B1B68072213403A689A42B5
:1013B0001ED2244B1B68072293431900214B3A6825
:1013C0000A431A6000F0AEFF0300FB6009E000F082
:1013D000A9FF0200FB68D31A1B4A934201D90323D9
:1013E0002CE0184B1B68072213403A689A42EED152
:1013F0007B681B680422134009D0144B9B68154A74
:10140000134019007B68DA68104B0A439A6000F0B9
:1014100029F801000D4B9B681B0A0F221A400E4B46
:101420009200D3581F2213400A00DA400B4B1A6077
:101430000B4B1B68180003F03BFF03001800BD4670
:1014400004B080BD0020024088130000001002405C
:10145000FFF0FFFFFF8FFFFFE855000800000020AE
:101460000400002080B586B000AF3C4B9B6838225A
:1014700013400FD1394B1B68DB0A072213400122AE
:101480009A4013003B6039683548FEF719FE0300A7
:101490003B615DE0314B9B6838221340082B02D141
:1014A000304B3B6154E02D4B9B6838221340102B8E
:1014B00038D12A4BDB6803221340FB60274BDB68E3
:1014C0001B09072213400133BB60FB68032B0DD1BE
:1014D000B9682448FEF7F4FD030019001F4BDB68D0
:1014E0001B0A7F2213404B437B610DE0B9681C4807
:1014F000FEF7E6FD03001900184BDB681B0A7F228C
:1015000013404B437B61C046144BDB685B0F0722E3
:10151000134001337B6079687869FEF7D1FD0300E1
:101520003B6115E00D4B9B6838221340202B03D103
:1015300080231B023B610BE0084B9B683822134061
:10154000182B03D1FA23DB013B6101E000233B614F
:101550003B691800BD4606B080BDC0460010024081
:101560000024F40000127A0080B500AF024B1B6823
:101570001800BD4680BDC04600000020B0B500AFD9
:10158000FFF7F2FF0400FFF73FFB03001A0B054BC8
:101590009200D3581F221340DC4023001800BD46A0
:1015A000B0BDC0462856000880B582B000AF786054
:1015B00039607B6807221A600E4B9B6807221A402D
:1015C0007B685A600B4B9A68F0231B011A407B68BA
:1015D0009A60084B9A68E023DB011A407B68DA6066
:1015E000054B1B6807221A403B681A60C046BD467F
:1015F00002B080BD001002400020024080B586B0DD
:1016000000AF78601323FB1800221A701223FB1816
:1016100000221A707B681A6880239B02134000D155
:10162000A3E011203B1800221A70C34BDA6B802311
:101630005B05134010D1C04BDA6BBF4B80214905CD
:101640000A43DA63BC4BDA6B80235B051340BB6053
:10165000BB683B1801221A70B84B1A68B74B80213F
:1016600049000A431A6000F05DFE0300FB600BE0D6
:1016700000F058FE0200FB68D31A022B04D9132392
:10168000FB1803221A7005E0AC4B1A6880235B003C
:101690001340EDD01323FB181B78002B54D1A64B1D
:1016A000DA6DC0239B0013407B617B69002B19D04E
:1016B0007B681B6B7A699A4214D09F4BDB6DA04A02
:1016C00013407B619C4BDA6D9B4B802149020A439E
:1016D000DA65994BDA6D984B9A490A40DA65964B70
:1016E0007A69DA657B690122134016D000F01AFE90
:1016F0000300FB600CE000F015FE0200FB68D31A4B
:10170000914A934204D91323FB1803221A7004E070
:10171000894BDB6D02221340EDD01323FB181B789D
:10172000002B0AD1844BDB6D854A134019007B687E
:101730001A6B814B0A43DA650CE01223FB18132263
:10174000BA1812781A7005E01223FB181322BA187F
:1017500012781A701123FB181B78012B05D1764BD8
:10176000DA6B754B79490A40DA637B681B680122A2
:10177000134009D0704B5B6D0322934319007B68C3
:101780005A686D4B0A435A657B681B6802221340F6
:1017900009D0694B5B6D0C22934319007B689A68F2
:1017A000654B0A435A657B681B681022134009D0B9
:1017B000614B5B6D664A134019007B68DA685E4BCB
:1017C0000A435A657B681A6880239B00134009D03E
:1017D000594B5B6D5F4A134019007B689A69564B01
:1017E0000A435A657B681A688023DB00134009D0DE
:1017F000514B5B6D584A134019007B68DA694E4BB8
:101800000A435A657B681B682022134009D04A4B63
:101810005B6D524A134019007B681A69464B0A43B4
:101820005A657B681A688023DB01134015D0424B50
:101830005B6D9B0099087B681A6A3F4B0A435A65A7
:101840007B681A6A8023DB059A4206D13A4BDA6834
:10185000394B802149020A43DA607B681A68802389
:101860001B03134009D0344B5B6D40229343190096
:101870007B685A6A304B0A435A657B681A68802332
:101880009B03134016D02C4B5B6D354A1340190057
:101890007B689A6A284B0A435A657B689A6A802358
:1018A000DB039A4206D1244BDA68234B802149049A
:1018B0000A43DA607B681A688023DB03134016D082
:1018C0001D4B5B6D274A134019007B68DA6A1A4B7F
:1018D0000A435A657B68DA6A80235B049A4206D120
:1018E000154BDA68144B802149040A43DA607B689F
:1018F0001A6880231B01134016D00F4B5B6D1A4AE8
:10190000134019007B685A690B4B0A435A657B6880
:101910005A698023DB019A4206D1074BDA68064BED
:10192000802149020A43DA601223FB181B78180051
:10193000BD4606B080BDC0460010024000700040A9
:10194000FFFCFFFFFFFFFEFF88130000FFFFFFEF1C
:10195000FFF3FFFFFFFFF3FFFFFFCFFFFFCFFFFF0F
:10196000FFFFBFFFFFFFFFFEFF3FFFFF80B586B019
:1019700000AF7860396000237B6147E13B681B68FA
:1019800001217A6991400A001340FB60FB68002B3B
:1019900000D138E13B685B6803221340012B05D07E
:1019A0003B685B6803221340022B30D17B689B6845
:1019B0003B617B695B0003229A401300DA433B6979
:1019C00013403B613B68DA687B695B009A40130017
:1019D0003A6913433B617B683A699A607B685B684C
:1019E0003B6101227B699A401300DA433B69134053
:1019F0003B613B685B681B0901221A407B699A4086
:101A000013003A6913433B617B683A695A603B684B
:101A10005B6803221340032B17D07B68DB683B61B4
:101A20007B695B0003229A401300DA433B69134051
:101A30003B613B689A687B695B009A4013003A6996
:101A400013433B617B683A69DA603B685B68032259
:101A50001340022B23D17B69DA087B68083292009D
:101A6000D3583B617B69072213409B000F229A40A9
:101A70001300DA433B6913403B613B681A697B6999
:101A800007210B409B009A4013003A6913433B61C6
:101A90007B69DA087B68083292003969D1507B682B
:101AA0001B683B617B695B0003229A401300DA43A9
:101AB0003B6913403B613B685B6803221A407B69CA
:101AC0005B009A4013003A6913433B617B683A69B3
:101AD0001A603B685A68C0239B02134000D192E011
:101AE000504A7B699B0818339B009B583B617B697C
:101AF00003221340DB000F229A401300DA433B69B4
:101B000013403B617A68A023DB059A4213D07B68BF
:101B1000454A93420DD07B68444A934207D07B6884
:101B2000434A934201D1032306E0052304E0022344
:101B300002E0012300E000237A6903210A40D20079
:101B400093403A6913433B6136497B699B081833DC
:101B50009B003A695A50334B1B683B61FB68DA4380
:101B60003B6913403B613B685A6880235B03134029
:101B700003D03A69FB6813433B612A4B3A691A6008
:101B8000284B5B683B61FB68DA433B6913403B6170
:101B90003B685A6880239B03134003D03A69FB6873
:101BA00013433B611F4B3A695A601E4A8423D35842
:101BB0003B61FB68DA433B6913403B613B685A6811
:101BC00080239B02134003D03A69FB6813433B61B7
:101BD000144984223B698B50124A8023D3583B61BD
:101BE000FB68DA433B6913403B613B685A688023DA
:101BF0005B02134003D03A69FB6813433B61094918
:101C000080223B698B507B6901337B613B681A689A
:101C10007B69DA40131E00D0B0E6C046C046BD4620
:101C200006B080BD001802400004005000080050BB
:101C3000000C005080B582B000AF78607B68002B4C
:101C400001D1012377E07B681B683D4A94466344D9
:101C500014211800FEF734FA03009A007B681A6416
:101C60007B682522022199547B681B681A687B686F
:101C70001B6834490A401A607B681B6819687B68D6
:101C80009A687B68DB681A437B681B691A437B6828
:101C90005B691A437B689B691A437B68DB691A435B
:101CA0007B681B6A1A437B681B680A431A607B685F
:101CB000180000F0C7F97B689A688023DB019A421C
:101CC00002D17B6800225A607B685A687B685B6C33
:101CD0003F210A401A607B689B6C7A68D26C5A601C
:101CE0007B685B68002B11D07B685B68042B0DD888
:101CF0007B68180000F0D2F97B681B6D00221A6027
:101D00007B685B6D7A68926D5A6008E07B680022A0
:101D10001A657B6800225A657B6800229A657B6899
:101D20000022DA637B682522012199547B682422F2
:101D30000021995400231800BD4602B080BDC04662
:101D4000F8FFFDBF0F80FFFF80B582B000AF786065
:101D50007B68002B01D1012350E07B6825229B5C2E
:101D6000DBB2022B08D07B680422DA637B68242272
:101D700000219954012341E07B681B681A687B6845
:101D80001B680E218A431A607B685B6C1A687B684B
:101D90005B6C1C490A401A607B681B681A687B6888
:101DA0001B6801218A431A60174B59687B681B6CBA
:101DB0001C22134001229A40134B0A435A607B684D
:101DC0009B6C7A68D26C5A607B681B6D002B0CD0C0
:101DD0007B681B6D1A687B681B6D0A490A401A6094
:101DE0007B685B6D7A68926D5A607B682522012161
:101DF00099547B6824220021995400231800BD4681
:101E000002B080BDFFFEFFFF0000024080B584B03D
:101E100000AF78600F217B1800221A707B682522A2
:101E20009B5CDBB2022B06D07B680422DA637B1852
:101E300001221A7049E07B681B681A687B681B687E
:101E40000E218A431A607B681B681A687B681B68CE
:101E500001218A431A607B685B6C1A687B685B6C43
:101E60001D490A401A601D4B59687B681B6C1C2277
:101E7000134001229A40194B0A435A607B689B6CBD
:101E80007A68D26C5A607B681B6D002B0CD07B6823
:101E90001B6D1A687B681B6D0F490A401A607B68CE
:101EA0005B6D7A68926D5A607B6825220121995496
:101EB0007B682422002199547B689B6B002B04D003
:101EC0007B689B6B7A68100098470F23FB181B7880
:101ED0001800BD4604B080BDFFFEFFFF00000240B9
:101EE00080B584B000AF7860554B1B68FB607B68A1
:101EF0001B681B68BB607B681B6C1C2213400422A0
:101F00009A401300FA68134027D0BB68042213409C
:101F100023D07B681B681B682022134007D17B6895
:101F20001B681A687B681B6804218A431A60444B4B
:101F300059687B681B6C1C22134004229A40404B5A
:101F40000A435A607B681B6B002B00D173E07B68EF
:101F50001B6B7A68100098476DE07B681B6C1C2235
:101F6000134002229A401300FA6813402ED0BB6837
:101F7000022213402AD07B681B681B682022134072
:101F80000BD17B681B681A687B681B680A218A432F
:101F90001A607B68252201219954294B59687B6876
:101FA0001B6C1C22134002229A40254B0A435A60A4
:101FB0007B682422002199547B68DB6A002B3AD08D
:101FC0007B68DB6A7A681000984734E07B681B6C9A
:101FD0001C22134008229A401300FA6813402BD0A9
:101FE000BB680822134027D07B681B681A687B688F
:101FF0001B680E218A431A60114B59687B681B6C61
:102000001C22134001229A400D4B0A435A607B6800
:102010000122DA637B682522012199547B682422FE
:10202000002199547B685B6B002B05D07B685B6B50
:102030007A6810009847C046C046BD4604B080BDCF
:102040000000024080B584B000AF78607B681B6CF4
:102050009B08104A944663449B001A007B685A64AC
:102060007B681B681A00FF231340083B14211800EB
:10207000FEF726F80300FB607B68074A9A64FB685A
:102080001F22134001229A407B68DA64C046BD4695
:1020900004B080BD008200108008024080B584B08A
:1020A00000AF78607B685B683F221340FB60FB6891
:1020B0000A4A944663449B001A007B681A657B6851
:1020C000074A5A65FB68013B0322134001229A40EC
:1020D0007B689A65C046BD4604B080BD3F82001053
:1020E0004009024080B584B000AF7860194B1B688E
:1020F000194A13401900174B7A680A431A607A6824
:1021000080239B009A421FD1144B1A6813005B0076
:102110009B185B0012491800FDF7D2FF0300013342
:10212000FB6008E0FB68002B03D0FB68013BFB6011
:1021300001E0032309E0074B5A698023DB001A40C2
:102140008023DB009A42EDD000231800BD4604B086
:1021500080BDC04600700040FFF9FFFF0000002076
:1021600040420F0080B582B000AF0200FB1D1A7024
:10217000FB1D1B787F2B09D8FB1D1B781A001F2322
:102180001A40044B012191400A001A60C046BD4626
:1021900002B080BD00E100E090B583B000AF020066
:1021A0003960FB1D1A70FB1D1B787F2B28D82F4A26
:1021B000FB1D1B785BB29B08C0339B009B58FA1D2C
:1021C0001278110003220A40D200FF2191400A0038
:1021D000D2431A4011003B689B01FF221A40FB1DAD
:1021E0001B78180003230340DB009A401F48FB1DA7
:1021F0001B785BB29B080A43C0339B001A5031E046
:102200001B4AFB1D1B7819000F230B40083B9B0842
:1022100006339B00D31804331B68FA1D1278110093
:1022200003220A40D200FF2191400A00D2431A4003
:1022300011003B689B01FF221A40FB1D1B78180010
:1022400003230340DB009A400948FB1D1B781C0058
:102250000F232340083B9B080A4306339B00C31807
:1022600004331A60C046BD4603B090BD00E100E0F3
:1022700000ED00E080B584B000AFB9607A600F2156
:102280007B18021C1A70BA687B181B785BB21100AD
:102290001800FFF781FFC046BD4604B080BD80B581
:1022A00082B000AF0200FB1D1A70FB1D1B785BB2F1
:1022B0001800FFF757FFC046BD4602B080BD0000C2
:1022C00080B582B000AFFB1D00221A700B4B1A685C
:1022D0000A4B802149000A431A60032002F0E8FFFC
:1022E000031E03D0FB1D01221A7001E002F0B6FFAD
:1022F000FB1D1B781800BD4602B080BD00200240C7
:1023000080B500AF054B1B781A00054B1B68D2182F
:10231000034B1A60C046BD4680BDC0460800002081
:102320002C00002080B500AF024B1B681800BD4692
:1023300080BDC0462C00002080B582B000AF786020
:102340007B68002B01D1012346E07B6888229B58E3
:10235000002B07D17B688422002199547B681800E8
:1023600002F05EFC7B688822242199507B681B6800
:102370001A687B681B6801218A431A607B689B6A24
:10238000002B03D07B68180000F02CFE7B6818003F
:1023900000F06AFB0300012B01D101231CE07B68E4
:1023A0001B685A687B681B680D490A405A607B6845
:1023B0001B689A687B681B682A218A439A607B683D
:1023C0001B681A687B681B6801210A431A607B68D6
:1023D000180000F0BBFE03001800BD4602B080BD2F
:1023E000FFB7FFFFB0B5AAB000AF78607B681B688D
:1023F000DB69A422B9180B607B681B681B68A020EE
:1024000039180B607B681B689B689C2439190B602A
:102410001100BB181B68A24A13409822BD182B60FC
:10242000BB181B68002B1AD17B181B682022134095
:1024300015D03B181B682022134005D13B191A68A0
:1024400080235B0513400AD07B685B6F002B00D1B3
:10245000DCE27B685B6F7A6810009847D6E29823CD
:10246000FB181B68002B00D122E19C23FB181B6882
:102470008C4A134006D1A023FB181B688A4A1340DC
:1024800000D115E1A423FB181B680122134012D0D0
:10249000A023FB181A6880235B0013400BD07B68D5
:1024A0001B6801221A627B6890229B5801221A4302
:1024B0007B6890215A50A423FB181B68022213400A
:1024C00011D09C23FB181B68012213400BD07B68A2
:1024D0001B6802221A627B6890229B5804221A43CE
:1024E0007B6890215A50A423FB181B6804221340D8
:1024F00011D09C23FB181B68012213400BD07B6872
:102500001B6804221A627B6890229B5802221A439D
:102510007B6890215A50A423FB181B6808221340A3
:1025200017D0A023FB181B682022134005D19C2341
:10253000FB181B685B4A13400BD07B681B680822A2
:102540001A627B6890229B5808221A437B6890216C
:102550005A50A423FB181A6880231B01134013D080
:10256000A023FB181A688023DB0413400CD07B687F
:102570001B68802212011A627B6890229B582022DD
:102580001A437B6890215A507B6890229B58002BFD
:1025900000D13DE2A423FB181B682022134015D074
:1025A000A023FB181B682022134006D19C23FB1894
:1025B0001A6880235B05134008D07B685B6F002B93
:1025C00004D07B685B6F7A68100098477B68902224
:1025D0009B5894217A1813607B681B689B68402283
:1025E0001340402B04D07B181B68282213404CD08A
:1025F0007B68180000F0C4FE7B681B689B68402263
:102600001340402B3CD1EFF310833B663B6E902090
:102610003A18136001237B667B6E83F31088C046F3
:102620007B681B689A687B681B6840218A439A60B4
:102630003B181B68BB66BB6E83F31088C0467B6883
:1026400080229B58002B16D07B6880229B58174A0B
:102650009A637B6880229B581800FFF7D7FB031E04
:102660001CD07B6880229B589B6B7A6880215258D3
:102670001000984712E07B68180000F0E1F90DE0C7
:102680007B68180000F0DCF908E07B68180000F0B7
:10269000D7F97B68902200219950B9E1C046B7E193
:1026A0000F08000001000010200100044D34000854
:1026B0007B68DB6E012B00D03EE1A423FB181B6876
:1026C0001022134000D137E1A023FB181B68102211
:1026D000134000D130E17B681B6810221A627B68CE
:1026E0001B689B6840221340402B00D0A4E07B680D
:1026F00080229B581B685A687E217B181A807B18A1
:102700001B88002B00D185E17B685C229B5A7A18DC
:1027100012889A4200D37DE17B687A185E21128884
:102720005A527B6880229B581B681B6820221340EA
:1027300070D1EFF310833B633B6BBB6701237B637B
:102740007B6B83F31088C0467B681B681A687B68C4
:102750001B68B4490A401A60BB6FBB63BB6B83F351
:102760001088C046EFF31083FB63FB6B7B6701238C
:102770003B643B6C83F31088C0467B681B689A6897
:102780007B681B6801218A439A607B6F7B647B6C4A
:1027900083F31088C046EFF31083BB64BB6C3B67C8
:1027A0000123FB64FB6C83F31088C0467B681B68C5
:1027B0009A687B681B6840218A439A603B6F3B653F
:1027C0003B6D83F31088C0467B688C222021995092
:1027D0007B680022DA66EFF310837B657B6DFB6616
:1027E0000123BB65BB6D83F31088C0467B681B6803
:1027F0001A687B681B6810218A431A60FB6EFB65B0
:10280000FB6D83F31088C0467B6880229B581800BC
:10281000FFF79AFA7B6802221A677B685C229A5A51
:102820007B685E215B5A9BB2D31A9AB27B68110017
:10283000180000F00DF9EDE07B685C22995A7B6886
:102840005E229B5A9AB28E203B188A1A1A807B68A5
:102850005E229B5A9BB2002B00D1DDE03B181B8807
:10286000002B00D1D8E0EFF31083FB60FB688824D5
:102870003A19136001233B613B6983F31088C0461A
:102880007B681B681A687B681B6867490A401A6086
:102890003B191B687B617B6983F31088C046EFF3AB
:1028A0001083BB61BB6984243A1913600123FB6167
:1028B000FB6983F31088C0467B681B689A687B6855
:1028C0001B685A490A409A603B191B683B623B6A85
:1028D00083F31088C0467B688C22202199507B6846
:1028E0000022DA667B6800225A67EFF310837B626E
:1028F0007B6A80243A1913600123BB62BB6A83F3AD
:102900001088C0467B681B681A687B681B681021AA
:102910008A431A603B191B68FB62FB6A83F31088C9
:10292000C0467B6802221A673B181A887B68110030
:10293000180000F08DF86FE0A423FB181A688023BC
:102940005B03134010D09C23FB181A688023DB0321
:10295000134009D07B681B68802252031A627B688F
:10296000180000F0B6FD5AE0A423FB181B68802273
:10297000134016D0A023FB181B688022134006D1F9
:102980009C23FB181A6880231B04134009D07B6822
:102990009B6F002B42D07B689B6F7A681000984732
:1029A0003CE0A423FB181B68402213400AD0A0235C
:1029B000FB181B684022134004D07B68180000F00D
:1029C0005CFD2CE0A423FB181A6880231B04134031
:1029D0000BD0A023FB181A688023DB05134004D01A
:1029E0007B68180000F085FD19E0A423FB181A6825
:1029F00080235B04134012D0A023FB181B68002B1C
:102A00000DDA7B68180000F06CFD08E0C04606E0B7
:102A1000C04604E0C04602E0C04600E0C046BD46F5
:102A20002AB0B0BDFFFEFFFFDFFEFFFFFEFFFFEF9E
:102A300080B582B000AF7860C046BD4602B080BDB0
:102A400080B582B000AF7860C046BD4602B080BDA0
:102A500080B582B000AF78600A00BB1C1A80C04607
:102A6000BD4602B080BD0000B0B590B000AF786246
:102A70001A2320229B18DB1900221A707B6A9A689D
:102A80007B6A1B691A437B6A5B691A437B6ADB6951
:102A90001343FB637B6A1B681B68AF4A1340190032
:102AA0007B6A1A68FB6B0B4313607B6A1B685B686D
:102AB000AA4A134018007B6AD9687B6A1A68030027
:102AC0000B4353607B6A9B69FB637B6A1B68A44A68
:102AD000934204D07B6A1B6AFA6B1343FB637B6AE5
:102AE0001B689B689F4A134019007B6A1A68FB6B3E
:102AF0000B4393607B6A1B68DB6A0F2293431800C9
:102B00007B6A596A7B6A1A6803000B43D3627B6A4B
:102B10001B68954A934231D1944B5B6D032213405D
:102B2000032B1DD023D8022B0CD020D8002B02D091
:102B3000012B0ED01BE01B2320229B18DB19002247
:102B40001A70B4E01B2320229B18DB1902221A7092
:102B5000ADE01B2320229B18DB1904221A70A6E08B
:102B60001B2320229B18DB1908221A709FE01B23CD
:102B700020229B18DB1910221A7098E07B6A1B68D0
:102B80007B4A934231D1794B5B6D0C2213400C2B65
:102B90001DD023D8082B0CD020D8002B02D0042B1A
:102BA0000ED01BE01B2320229B18DB1900221A7079
:102BB0007DE01B2320229B18DB1902221A7076E08D
:102BC0001B2320229B18DB1904221A706FE01B23A1
:102BD00020229B18DB1908221A7068E01B23202290
:102BE0009B18DB1910221A7061E07B6A1B68614A2E
:102BF000934206D11B2320229B18DB1900221A7056
:102C000055E07B6A1B685C4A934206D11B23202255
:102C10009B18DB1900221A7049E07B6A1B68504A36
:102C200093423ED1514B5A6DC0231B011340C02229
:102C30001201934227D0C022120193422AD8802247
:102C40001201934211D080221201934222D8002B0C
:102C500004D08022D20093420ED01BE01B232022FE
:102C60009B18DB1900221A7021E01B2320229B18DD
:102C7000DB1902221A701AE01B2320229B18DB1991
:102C800004221A7013E01B2320229B18DB19082250
:102C90001A700CE01B2320229B18DB1910221A70DB
:102CA00005E01B2320229B18DB1910221A707B6A77
:102CB0001B682B4A934200D0A9E01B2320229B18BB
:102CC000DB191B78082B15D018DC042B0DD015DC74
:102CD000002B02D0022B05D010E0FEF74FFC0300C2
:102CE0007B6314E0254B7B6311E0FEF7BBFB030025
:102CF0007B630CE080231B027B6308E000237B6383
:102D00001A2320229B18DB1901221A70C0467B6B04
:102D1000002B00D14BE17B6A5A6A194B5200D35AFF
:102D20001900786BFDF7CCF90300BB627B6A5A6827
:102D300013005B009B18BA6A9A4205D37B6A5B68F2
:102D40001B03BA6A9A421DD91A2320229B18DB1949
:102D500001221A702BE1C046F369FFCFFFCFFFFFBE
:102D600000800040FFF4FF110038014000100240D5
:102D70000044004000480040004C00400024F400A3
:102D8000485600087B6BBB610023FB617B6A5A6A73
:102D9000924B5200D35A3B6100237B613A697B69B5
:102DA000B869F969FDF702FB02000B00110E1D0264
:102DB0000D4314027B6A5B685B08BB600023FB6009
:102DC000B868F968001969417B6A5B683B60002359
:102DD0007B603A687B68FDF7E9FA02000B0013009C
:102DE0003B633A6BC0239B009A4209D33A6B802322
:102DF0005B039A4204D27B6A1B683A6BDA60D6E0C6
:102E00001A2320229B18DB1901221A70CFE07B6A5B
:102E1000DA6980231B029A4200D070E01B23202233
:102E20009B18DB191B78082B15D018DC042B0DD050
:102E300015DC002B02D0022B05D010E0FEF79EFB24
:102E400003007B6314E0664B7B6311E0FEF70AFB33
:102E500003007B630CE080231B027B6308E00023FC
:102E60007B631A2320229B18DB1901221A70C046AB
:102E70007B6B002B00D19AE07B6A5A6A574B520059
:102E8000D35A1900786BFDF71BF903005A007B6ACF
:102E90005B685B08D2187B6A5B6819001000FDF75D
:102EA0000FF903003B633B6B0F2B21D93A6B802357
:102EB0005B029A421CD23B6B9AB20E20202403196B
:102EC000DB190F218A431A803B6B5B089BB20722F8
:102ED000134099B20319DB190219D21912880A4357
:102EE0001A807B6A1B680219D2191288DA605EE0C8
:102EF0001A2320229B18DB1901221A7057E01B238A
:102F000020229B18DB191B78082B15D018DC042B0A
:102F10000DD015DC002B02D0022B05D010E0FEF7FF
:102F20002DFB03007B6314E02D4B7B6311E0FEF768
:102F300099FA03007B630CE080231B027B6308E0AB
:102F400000237B631A2320229B18DB1901221A70AD
:102F5000C0467B6B002B2AD07B6A5A6A1F4B5200FB
:102F6000D35A1900786BFDF7ABF803001A007B6A9F
:102F70005B685B08D2187B6A5B6819001000FDF77C
:102F80009FF803003B633B6B0F2B0AD93A6B8023FE
:102F90005B029A4205D23B6B9AB27B6A1B68DA608D
:102FA00005E01A2320229B18DB1901221A707B6A84
:102FB0006A22012199527B6A6822012199527B6A17
:102FC00000225A677B6A00229A671A2320229B18E4
:102FD000DB191B781800BD4610B0B0BD485600087C
:102FE0000024F40080B582B000AF78607B689B6AF3
:102FF000082213400BD07B681B685B684A4A134069
:1030000019007B689A6B7B681B680A435A607B686F
:103010009B6A012213400BD07B681B685B68434AA4
:10302000134019007B68DA6A7B681B680A435A60A0
:103030007B689B6A022213400BD07B681B685B682D
:103040003B4A134019007B681A6B7B681B680A4374
:103050005A607B689B6A042213400BD07B681B6814
:103060005B68344A134019007B685A6B7B681B68A5
:103070000A435A607B689B6A102213400BD07B681E
:103080001B689B682C4A134019007B68DA6B7B68CD
:103090001B680A439A607B689B6A202213400BD00E
:1030A0007B681B689B68254A134019007B681A6C73
:1030B0007B681B680A439A607B689B6A40221340C6
:1030C0001DD07B681B685B681D4A134019007B6834
:1030D0005A6C7B681B680A435A607B685A6C802371
:1030E0005B039A420BD17B681B685B68154A1340EF
:1030F00019007B689A6C7B681B680A435A607B687E
:103100009B6A802213400BD07B681B685B680E4A69
:10311000134019007B68DA6C7B681B680A435A60AD
:10312000C046BD4602B080BDFF7FFFFFFFFFFDFF31
:10313000FFFFFEFFFFFFFBFFFFEFFFFFFFDFFFFFD4
:10314000FFFFEFFFFFFF9FFFFFFFF7FF80B592B08C
:1031500002AF78607B68902200219950FFF7E2F877
:103160000300FB637B681B681B6808221340082B65
:103170002DD1FB6B802291037868474A0092002290
:1031800000F08EF8031E22D0EFF310837B627B6A7F
:10319000BB630123BB62BB6A83F31088C0467B68B4
:1031A0001B681A687B681B6880218A431A60BB6BA6
:1031B000FB62FB6A83F31088C0467B68882220216B
:1031C00099507B68842200219954032360E07B6836
:1031D0001B681B6804221340042B46D1FB6B802222
:1031E000D10378682C4A0092002200F059F8031E9F
:1031F0003BD0EFF31083FB60FB687B6301233B61F3
:103200003B6983F31088C0467B681B681A687B683B
:103210001B6822490A401A607B6B7B617B6983F3E0
:103220001088C046EFF31083BB61BB693B63012389
:10323000FB61FB6983F31088C0467B681B689A6852
:103240007B681B6801218A439A603B6B3B623B6A47
:1032500083F31088C0467B688C22202199507B68BC
:10326000842200219954032312E07B6888222021C4
:1032700099507B688C22202199507B680022DA6665
:103280007B6800221A677B688422002199540023FE
:103290001800BD4610B080BDFFFFFF01DFFEFFFF3D
:1032A00080B584B000AFF860B9603B60FB1D1A7058
:1032B00051E0BB6901334ED0FFF734F802003B68A0
:1032C000D31ABA699A4202D3BB69002B01D10323F6
:1032D00051E0FB681B681B68042213403BD0BB68AD
:1032E000802B38D0BB68402B35D0FB681B68DB696E
:1032F00008221340082B11D1FB681B6808221A62B0
:10330000FB68180000F03CF8FB68902208219950F7
:10331000FB6884220021995401232CE0FB681B6880
:10332000DA6980231B011A4080231B019A4212D1C3
:10333000FB681B68802212011A62FB68180000F00B
:103340001FF8FB68902220219950FB6884220021FD
:10335000995403230FE0FB681B68DB69BA681340CC
:10336000BA68D31A5A425341DBB21A00FB1D1B78CC
:103370009A429ED000231800BD4604B080BD0000D4
:1033800080B58EB000AF7860EFF310837B617B690E
:103390007B630123BB61BB6983F31088C0467B68F4
:1033A0001B681A687B681B6826490A401A607B6B99
:1033B000FB61FB6983F31088C046EFF310833B6227
:1033C0003B6A3B6301237B627B6A83F31088C046C0
:1033D0007B681B689A687B681B681B490A409A6077
:1033E0003B6BBB62BB6A83F31088C0467B68DB6EB5
:1033F000012B18D1EFF31083BB60BB68FB62012384
:10340000FB60FB6883F31088C0467B681B681A6802
:103410007B681B6810218A431A60FB6A3B613B6929
:1034200083F31088C0467B688C22202199507B68EA
:103430000022DA667B6800225A67C046BD460EB09D
:1034400080BDC046DFFEFFFFFEFFFFEF80B584B00A
:1034500000AF78607B689B6AFB60FB685E2200219E
:103460009952FB68562200219952FB681800FFF719
:10347000E7FAC046BD4604B080BD80B586B000AF57
:103480007860EFF31083BB60BB687B610123FB6056
:10349000FB6883F31088C0467B681B681A687B68EA
:1034A0001B6840218A431A607B693B613B6983F357
:1034B0001088C0467B688822202199507B680022B2
:1034C0009A677B681800FFF7B3FAC046BD4606B09E
:1034D00080BD80B582B000AF7860C046BD4602B006
:1034E00080BD80B582B000AF7860C046BD4602B0F6
:1034F00080BD80B582B000AF7860C046BD4602B0E6
:1035000080BD000080B584B000AF78607B68842205
:103510009B5C012B01D1022327E07B6884220121DF
:1035200099547B688822242199507B681B681B680A
:10353000FB607B681B681A687B681B6801218A43F3
:103540001A60FB680B4A1340FB607B6800225A66D6
:103550007B681B68FA681A607B6888222021995072
:103560007B6884220021995400231800BD4604B0D2
:1035700080BDC046FFFFFFDF80B584B000AF78603C
:1035800039607B6884229B5C012B01D102232EE0F1
:103590007B688422012199547B68882224219950D8
:1035A0007B681B681B68FB607B681B681A687B680C
:1035B0001B6801218A431A607B681B689B68DB00DB
:1035C000D9087B681B683A680A439A607B681800D0
:1035D00000F054F87B681B68FA681A607B688822E0
:1035E000202199507B6884220021995400231800DF
:1035F000BD4604B080BD000080B584B000AF7860E7
:1036000039607B6884229B5C012B01D102232FE06F
:103610007B688422012199547B6888222421995057
:103620007B681B681B68FB607B681B681A687B688B
:103630001B6801218A431A607B681B689B680E4ADD
:10364000134019007B681B683A680A439A607B68DC
:10365000180000F013F87B681B68FA681A607B6832
:103660008822202199507B688422002199540023CC
:103670001800BD4604B080BDFFFFFFF1F0B585B076
:1036800000AF78607B685B6E002B08D17B686A2294
:10369000012199527B6868220121995243E00F264B
:1036A000BB1908221A700E203B1808221A707B687A
:1036B0001B689B685B0EDAB20D243B1907210A4098
:1036C0001A707B681B689B685B0FDAB20C257B194C
:1036D00007210A401A703B181B787A19127814498E
:1036E0008A5C5A4310007B191B78124AD35C19007C
:1036F000FCF770FD030099B27B686A229952BB19EE
:103700001B783A1912780A498A5C5A4310003B190F
:103710001B78084AD35C1900FCF75CFD030099B2E2
:103720007B6868229952C046BD4605B0F0BDC046D0
:10373000605600086856000880B582B000AF786017
:103740007B6808331A007B685A607B68012252420A
:103750009A607B6808331A007B68DA607B680833FC
:103760001A007B681A617B6800221A60C046BD4659
:1037700002B080BD80B582B000AF78607B68002267
:103780001A61C046BD4602B080BD80B584B000AFAE
:10379000786039607B685B68FB603B68FA685A60F8
:1037A000FB689A683B689A60FB689B683A685A6055
:1037B000FB683A689A603B687A681A617B681B68A4
:1037C0005A1C7B681A60C046BD4604B080BD80B5F7
:1037D00084B000AF786039603B681B68BB60BB6831
:1037E000013303D17B681B69FB600CE07B68083305
:1037F000FB6002E0FB685B68FB60FB685B681B6862
:10380000BA689A42F6D2FB685A683B685A603B68CD
:103810005B683A689A603B68FA689A60FB683A6845
:103820005A603B687A681A617B681B685A1C7B681F
:103830001A60C046BD4604B080BD80B584B000AFFC
:1038400078607B681B69FB607B685B687A6892685C
:103850009A607B689B687A6852685A60FB685B680C
:103860007A689A4203D17B689A68FB685A607B68E1
:1038700000221A61FB681B685A1EFB681A60FB680D
:103880001B681800BD4604B080BD90B58DB004AF74
:10389000F860B9603B60BB1D1A80BB1D1B889B0094
:1038A000180000F07BFC03007B617B69002B10D0CB
:1038B000542000F073FC0300FB61FB69002B03D074
:1038C000FB697A691A6306E07B69180000F016FD4F
:1038D00001E00023FB61FB69002B16D0BB1D1A8899
:1038E0003C68B968F86800230393FB6902937B6B1B
:1038F00001933B6B0093230000F010F8FB69180064
:1039000000F08EF80123BB6102E001235B42BB6142
:10391000BB691800BD4609B090BD000080B586B0F7
:1039200000AFF860B9607A603B60BB6A1A6B7B6875
:103930003A498C4663449B00D3183B613B6907229C
:1039400093433B613B690722134002D072B6C046E5
:10395000FDE7BB68002B20D000237B6113E0BA6831
:103960007B69D3181878BA6A34217B69D3185B183D
:10397000021C1A70BA687B69D3181B78002B06D01A
:103980007B6901337B617B690F2BE8D900E0C0467E
:10399000BB6A43220021995403E0BB6A3422002110
:1039A00099543B6A062B01D906233B62BB6A3A6AEB
:1039B000DA62BB6A3A6A5A64BB6A00229A64BB6ADA
:1039C00004331800FFF7D6FEBB6A18331800FFF760
:1039D000D1FEBB6ABA6A1A613B6A0722D21ABB6A75
:1039E0009A61BB6ABA6A5A62BB6A0022DA64BB6A2D
:1039F0005022002199543A68F9683B69180000F098
:103A000085FD0200BB6A1A607B6A002B02D07B6ACC
:103A1000BA6A1A60C046BD4606B080BDFFFFFF3FD0
:103A200080B582B000AF786000F00AFE284B1B68BA
:103A30005A1C274B1A60274B1B68002B09D1254BBA
:103A40007A681A60224B1B68012B10D100F052FAE1
:103A50000DE0214B1B68002B09D11E4B1B68DA6A55
:103A60007B68DB6A9A4202D81A4B7A681A601B4B51
:103A70001B685A1C194B1A607B68DA6A184B1B6862
:103A80009A4203D97B68DA6A154B1A607B68DA6A56
:103A900013009B009B189B00124A9A187B68043302
:103AA00019001000FFF771FE00F0DCFD0A4B1B68E7
:103AB000002B08D0074B1B68DA6A7B68DB6A9A42E6
:103AC00001D200F0ADFDC046BD4602B080BDC0468B
:103AD00030010020300000203C0100204C0100207B
:103AE000380100203400002080B584B000AF786039
:103AF0000023FB607B68002B11D00D4B1B68002B53
:103B000002D072B6C046FDE700F04AF87B6800219B
:103B1000180000F091FA00F04FF80300FB60FB681A
:103B2000002B01D100F07CFDC046BD4604B080BD35
:103B30005801002080B584B002AF13491348144BDC
:103B400001930023009300238022FFF79EFE0300D1
:103B50007B607B68012B0DD172B60E4B0122524265
:103B60001A600D4B01221A600C4B00221A6000F003
:103B700033FD05E07B68013302D172B6C046FDE734
:103B8000C046BD4602B080BDC0550008D53E000805
:103B900054010020500100203C010020340100208D
:103BA00080B500AF034B1B685A1C024B1A60C0461D
:103BB000BD4680BD5801002080B584B000AF002311
:103BC000FB600023BB603A4B1B68002B02D172B62E
:103BD000C046FDE700F034FD354B1B685A1E344BE0
:103BE0001A60334B1B68002B5BD1324B1B68002BD8
:103BF00057D02FE0304BDB68DB68FB60FB68183385
:103C00001800FFF71AFEFB6804331800FFF715FED3
:103C1000FB68DA6A294B1B689A4203D9FB68DA6AA7
:103C2000264B1A60FB68DA6A13009B009B189B0006
:103C3000234A9A18FB68043319001000FFF7A5FD0A
:103C4000FB68DA6A1F4B1B68DB6A9A4202D31E4B81
:103C500001221A60184B1B68002BCBD1FB68002B8C
:103C600001D000F0CBF9194B1B687B607B68002BFF
:103C70000FD000F02DF8031E02D0134B01221A6062
:103C80007B68013B7B607B68002BF2D10F4B0022ED
:103C90001A600D4B1B68002B03D00123BB6000F0A2
:103CA000BFFC00F0DFFCBB681800BD4604B080BD5F
:103CB0005801002030010020F000002038010020D1
:103CC000340000203000002044010020400100208A
:103CD00080B586B000AF00237B614A4B1B68002B88
:103CE00000D085E0484B1B6801333B61464B3A6985
:103CF0001A603B69002B18D1444B1B681B68002BD2
:103D000002D072B6C046FDE7404B1B68FB60404BDB
:103D10001A683E4B1A603E4BFA681A603D4B1B68AE
:103D20005A1C3C4B1A6000F069F93B4B1B683A691E
:103D30009A4249D3354B1B681B68002B04D1364B84
:103D4000012252421A603FE0304B1B68DB68DB689F
:103D5000BB60BB685B687B603A697B689A4203D250
:103D60002D4B7A681A602FE0BB6804331800FFF708
:103D700064FDBB689B6A002B04D0BB681833180035
:103D8000FFF75BFDBB68DA6A244B1B689A4203D9D4
:103D9000BB68DA6A214B1A60BB68DA6A13009B00C1
:103DA0009B189B001E4A9A18BB6804331900100028
:103DB000FFF7EBFCBB68DA6A1A4B1B68DB6A9A42B6
:103DC000B8D301237B61B5E7164B1B68DA6A144947
:103DD00013009B009B189B005B58012B01D901230A
:103DE0007B61114B1B68002B07D001237B6104E032
:103DF0000E4B1B685A1C0D4B1A607B691800BD46A0
:103E000006B080BD5801002034010020E8000020E9
:103E1000EC00002048010020500100203801002063
:103E20003400002030000020440100204001002028
:103E300080B582B000AF224B1B68002B03D0214B12
:103E400001221A6038E01F4B00221A601E4B1B68CB
:103E50007B6008E07B68002B02D172B6C046FDE7AC
:103E60007B68013B7B6019497A6813009B009B18B3
:103E70009B005B58002BEDD07A6813009B009B18C9
:103E80009B00124A9B183B603B685B685A683B6822
:103E90005A603B685A683B6808339A4204D13B68D1
:103EA0005B685A683B685A603B685B68DA68084B35
:103EB0001A60054B7A681A60C046BD4602B080BDE4
:103EC0005801002044010020380100203400002067
:103ED0003000002080B582B000AF786000F04EF86E
:103EE000034B1B68012BF9D900F09AFBF6E7C0469B
:103EF0003400002080B582B000AF00237B600CE06E
:103F00007A6813009B009B189B00144A9B181800AA
:103F1000FFF712FC7B6801337B607B68062BEFD9CF
:103F20000F4B1800FFF708FC0E4B1800FFF704FCBE
:103F30000D4B1800FFF700FC0C4B1800FFF7FCFBC3
:103F40000B4B1800FFF7F8FB0A4B054A1A600A4BA7
:103F5000044A1A60C046BD4602B080BD340000204D
:103F6000C0000020D4000020F00000200401002048
:103F70001C010020E8000020EC00002080B582B089
:103F800000AF1AE000F05CFB104BDB68DB687B6085
:103F90007B6804331800FFF750FC0D4B1B685A1E5A
:103FA0000B4B1A600B4B1B685A1E0A4B1A6000F031
:103FB00059FB7B68180000F00FF8064B1B68002BBC
:103FC000E0D1C046C046BD4602B080BD040100201D
:103FD000300100201801002080B582B000AF786069
:103FE0007B681B6B180000F089F97B68180000F0F3
:103FF00085F9C046BD4602B080BD000080B582B0E4
:1040000000AF0B4B1B681B68002B04D1094B01222E
:1040100052421A6008E0064B1B68DB68DB687B6075
:104020007B685A68034B1A60C046BD4602B080BD2B
:10403000E80000205001002080B584B000AF786017
:104040003960214B1B68FB60204B1B680433180050
:10405000FFF7F3FB7B6801330BD13B68002B08D0E3
:104060001A4B1B681A1D1A4B11001800FFF78DFB25
:1040700026E0FA687B68D318BB60144B1B68BA68EB
:104080005A60BA68FB689A4209D2124B1A680F4B01
:104090001B68043319001000FFF799FB10E00E4B6A
:1040A0001A680A4B1B68043319001000FFF78FFBD6
:1040B0000A4B1B68BA689A4202D2084BBA681A6067
:1040C000C046BD4604B080BD340100203000002051
:1040D0001C010020EC000020E8000020500100201E
:1040E00080B584B000AF0200BB1D1A800023FB60C6
:1040F000BB1D00229B5E842B06D0BB1D00229A5E56
:10410000FB68D3180333FB60FB681800BD4604B09E
:1041100080BD80B500AFFFF70DFD00231800BD4640
:1041200080BDF0B587B002AF786039607B685C68AD
:104130007B681D687B681B699EB27B6808229B5E5A
:104140001800FFF7CDFF01003A680C23FB1801931C
:1041500000911300320029002000FFF796FB0300B6
:10416000012B01D0002300E0FB681800BD4605B01C
:10417000F0BD80B584B000AF78607B68FB60FB6801
:10418000002B01D0FB6800E001231800FFF7ACFC16
:1041900000231800BD4604B080BD000080B586B085
:1041A00000AF78600023FB60FFF7FAFC4D4B1B6803
:1041B000002B01D100F0F2F84B4B1B687A681340DA
:1041C00000D080E07B68002B13D008227B689B180E
:1041D0007B607B68072213400BD07B6807229343E8
:1041E00008337B607B680722134002D072B6C0465A
:1041F000FDE77B68002B66D03C4B1B687A689A42CF
:1042000061D83B4B3B613A4B1B687B6104E07B69A7
:104210003B617B691B687B617B695B687A689A425A
:1042200003D97B691B68002BF1D12E4B1B687A697F
:104230009A4248D03B691B6808229B18FB607B6947
:104240001A683B691A607B695A687B68D21A08232E
:104250005B009A4217D97A697B68D318BB60BB6848
:104260000722134002D072B6C046FDE77B695A6848
:104270007B68D21ABB685A607B697A685A60BB68EF
:10428000180000F0EBF8194B1A687B695B68D21ACA
:10429000164B1A60154B1A68164B1B689A4203D2CC
:1042A000124B1A68134B1A607B695A680E4B1B68D5
:1042B0001A437B695A607B6900221A600E4B1B68A7
:1042C0005A1C0D4B1A60FFF777FCFB68072213405E
:1042D00002D072B6C046FDE7FB681800BD4606B0C6
:1042E00080BDC046640D0020780D0020680D0020C0
:1042F0005C0D00206C0D0020700D002080B584B096
:1043000000AF78607B68FB607B68002B3CD00823A3
:104310005B42FA68D318FB60FB68BB60BB685A68F5
:104320001B4B1B68134002D172B6C046FDE7BB6849
:104330001B68002B02D072B6C046FDE7BB685A6806
:10434000134B1B6813401FD0BB681B68002B1BD18D
:10435000BB685A680E4B1B68DB431A40BB685A6047
:10436000FFF71EFCBB685A680A4B1B68D218094B42
:104370001A60BB68180000F071F8074B1B685A1CE4
:10438000054B1A60FFF718FCC046BD4604B080BD5F
:10439000780D0020680D0020740D002080B584B0D9
:1043A00000AFC0231B01BB60264BFB60FB680722EC
:1043B00013400CD0FB680733FB60FB680722934374
:1043C000FB60BA68FB68D21A1E4BD318BB60FB684F
:1043D0007B601D4B7A681A601B4B00225A607B6819
:1043E000BA68D318FB600822FB689B1AFB60FB6865
:1043F00007229343FB60FA68144B1A60134B1B6847
:1044000000225A60114B1B6800221A607B683B60D7
:104410003B68FA68D21A3B685A600C4B1A683B68D2
:104420001A603B685A680A4B1A603B685A68094B25
:104430001A60094B802212061A60C046BD4604B0BD
:1044400080BDC0465C0100205C0D0020640D002092
:104450006C0D0020680D0020780D002080B584B020
:1044600000AF7860274BFB6002E0FB681B68FB60D5
:10447000FB681B687A689A42F7D8FB68BB60FB68E8
:104480005B68BA68D3187A689A4208D1FB685A68A0
:104490007B685B68D218FB685A60FB687B607B684E
:1044A000BB607B685B68BA68D218FB681B689A427D
:1044B00018D1FB681A68144B1B689A420DD07B68B0
:1044C0005A68FB681B685B68D2187B685A60FB6897
:1044D0001B681A687B681A6008E00B4B1A687B68D7
:1044E0001A6003E0FB681A687B681A60FA687B68E8
:1044F0009A4202D0FB687A681A60C046BD4604B092
:1045000080BDC0465C0D0020640D002080B584B0E5
:1045100000AFF860B9607A60FB68043BFB60FB6841
:10452000802252041A60FB68043BFB60BA68FB6897
:104530001A60FB68043BFB60084AFB681A60FB6872
:10454000143BFB607A68FB681A60FB68203BFB60E9
:10455000FB681800BD4604B080BDC0466145000838
:1045600080B582B000AF00237B60084B1B6801332D
:1045700002D072B6C046FDE772B6C0467B68002B1B
:10458000FCD0C046C046BD4602B080BD0C00002035
:1045900080B500AFC046BD4680BD000000000000F1
:1045A0000B4A13681868203080F30988022080F3D2
:1045B0001488BFF36F8F3FBCAE4608BC04BC62B624
:1045C0001847C046C046C046C046C046C046C04662
:1045D00030000020C046C04680B500AF0E4B1A68C0
:1045E0000D4BFF2109040A431A600B4B1A680A4B52
:1045F000FF2109060A431A6000F098F8074B0022D1
:104600001A60FFF7CDFFFFF713FCFFF7A9FF0023A8
:104610001800BD4680BDC04620ED00E00C00002023
:1046200080B500AF054B802252051A60BFF34F8F53
:10463000BFF36F8FC046BD4680BDC04604ED00E0AD
:1046400080B500AF72B6064B1B685A1C044B1A604B
:10465000BFF34F8FBFF36F8FC046BD4680BDC046CE
:104660000C00002080B500AF094B1B68002B02D165
:1046700072B6C046FDE7064B1B685A1E044B1A6013
:10468000034B1B68002B00D162B6C046BD4680BDFF
:104690000C000020EFF3108072B67047C04618007F
:1046A00080F310887047C046000000000000000042
:1046B000EFF309800E4B1A6820381060F0C04446B2
:1046C0004D4656465F46F0C008B572B6FFF7B0FBE0
:1046D00062B60CBC116808681030F0C8A046A94644
:1046E000B246BB4680F309882038F0C81847C04658
:1046F00030000020C046C04680B582B000AFFFF752
:10470000C9FF03007B60FFF7E3FA031E03D0064BEB
:10471000802252051A607B681800FFF7C1FFC0466F
:10472000BD4602B080BDC04604ED00E080B500AFDC
:104730000B4B00221A600B4B00221A600A4B1B68BD
:10474000FA2291001800FBF7BBFC03001A00074B8C
:10475000013A1A60024B07221A60C046BD4680BD6E
:1047600010E000E018E000E00000002014E000E0AD
:1047700080B500AFFDF7A4FD00F014F800F082F85A
:1047800000F014F900F0CEF800F03EF900F08CF9DA
:1047900000F0DAF900F00EFA00F0A2F8FFF7B9FC29
:1047A000C046FDE790B593B000AF10243B19180048
:1047B00038231A000021FBF78FFE3B00180010235E
:1047C0001A000021FBF788FE80239B001800FDF7EC
:1047D00089FC3B1901221A603B19802252025A605F
:1047E00021007B180222DA617B1803221A627B18EF
:1047F00000225A627B1810229A627B188022920251
:10480000DA627B18802292041A637B188022920558
:104810005A637B181800FCF703FA031E01D000F05E
:104820002BF83B0007221A603B0002225A603B0033
:1048300000229A603B000022DA603B00022118004F
:10484000FCF708FD031E01D000F016F8C046BD4677
:1048500013B090BD80B582B000AF78607B681B68F4
:10486000044A934201D1FDF74BFDC046BD4602B05C
:1048700080BDC0460048014080B500AF72B6C0465A
:10488000C046FDE780B584B000AF144B5A6B134BA4
:1048900020210A435A63114B5B6B20221340FB60BB
:1048A000FB680E4B5A6B0D4B01210A435A630B4BAD
:1048B0005B6B01221340BB60BB68084B5A6B074B14
:1048C00002210A435A63054B5B6B022213407B6053
:1048D0007B68C046BD4604B080BDC04600100240A3
:1048E00090B587B000AF3B1D084A13CA13C303CA73
:1048F00003C33B1D00211800FFF713FC0200044B0B
:104900001A60C046BD4607B090BDC046D4550008E9
:104910007C0D002080B582B000AF78600120FFF7E9
:1049200028FCFBE780B500AF0E4B0F4A1A600D4B19
:1049300000221A710B4B00225A710A4B00225A6155
:10494000084B00229A61074B01221A62054B18009E
:10495000FCF77EF8031E01D0FFF78EFFC046BD4670
:1049600080BDC046800D00200030024080B584B07C
:1049700000AF78607B681B680A4A93420DD10A4BEE
:104980009A6B094B802149010A439A63064B9A6B43
:1049900080235B011340FB60FB68C046BD4604B04A
:1049A00080BDC046003002400010024080B582B099
:1049B00000AF144B9A6B134B01210A439A63114BBE
:1049C0009B6B012213407B607B680022032109203E
:1049D000FDF750FC0920FDF762FC002203210A20AC
:1049E000FDF748FC0A20FDF75AFC002203210B20AA
:1049F000FDF740FC0B20FDF752FCC046BD4602B05F
:104A000080BDC0460010024080B500AF234B244A51
:104A10001A60224B234A5A60204B802252019A602E
:104A20001E4B0022DA601D4B8022D2001A611B4B04
:104A30000C225A61194B00229A61184B0022DA614C
:104A4000164B00221A62154B00225A62134B0022A9
:104A50009A62124B1800FDF76FFC031E01D0FFF79E
:104A60000BFF0E4B00211800FEF786FD031E01D040
:104A7000FFF702FF094B00211800FEF7BDFD031EE2
:104A800001D0FFF7F9FE054B1800FEF73BFD031EB2
:104A900001D0FFF7F1FEC046BD4680BDA40D002049
:104AA00000380140A086010080B500AF234B244AA6
:104AB0001A60224B234A5A60204B802252019A608E
:104AC0001E4B0022DA601D4B8022D2001A611B4B64
:104AD0000C225A61194B00229A61184B0022DA61AC
:104AE000164B00221A62154B00225A62134B002209
:104AF0009A62124B1800FDF71FFC031E01D0FFF74E
:104B0000BBFE0E4B00211800FEF736FD031E01D040
:104B1000FFF7B2FE094B00211800FEF76DFD031EE2
:104B200001D0FFF7A9FE054B1800FEF7EBFC031EB2
:104B300001D0FFF7A1FEC046BD4680BD380E002063
:104B400000440040A086010080B500AF164B174A14
:104B50001A60154B164A5A60134B802252019A6014
:104B6000114B0022DA60104B8022D2001A610E4BEA
:104B70000C225A610C4B00229A610B4B0022DA6125
:104B8000094B00221A62084B00225A62064B00228F
:104B90009A62054B1800FDF7CFFB031E01D0FFF70B
:104BA0006BFEC046BD4680BDCC0E002000480040D4
:104BB000A086010080B500AF164B174A1A60154B4E
:104BC000164A5A60134B802252019A60114B002200
:104BD000DA60104B8022D2001A610E4B0C225A610F
:104BE0000C4B00229A610B4B0022DA61094B002228
:104BF0001A62084B00225A62064B00229A62054B49
:104C00001800FDF799FB031E01D0FFF735FEC046E3
:104C1000BD4680BD600F0020004C0040A086010012
:104C200090B59FB000AF78606423FB181800142380
:104C30001A000021FBF750FC30243B1918003423E4
:104C40001A000021FBF748FC7B681B68A04A9342CE
:104C500000D09BE03B1901221A603B1900225A60E8
:104C60003B191800FCF7CAFC031E01D0FFF704FE35
:104C7000984B1A6C974B8021C9010A431A64954BD3
:104C80001A6C8023DB011340FB62FB6A914B5A6B69
:104C9000904B01210A435A638E4B5B6B01221340F8
:104CA000BB62BB6A64217B18C022D2001A607B18E9
:104CB00002225A607B1800229A607B180022DA6078
:104CC0007B1801221A617A18A023DB051100180055
:104CD000FCF74CFE804B814A1A607F4B32225A60AF
:104CE0007D4B00229A607C4B0022DA607A4B802256
:104CF0001A61794B00225A61774B00229A61764BF8
:104D00000022DA61744B00221A62734B1800FCF720
:104D100091FF031E01D0FFF7AFFD7B6880216E4A33
:104D20005A506D4B7A689A626D4B6E4A1A606C4BA2
:104D300033225A606A4B10229A60694B0022DA6073
:104D4000674B80221A61664B00225A61644B002235
:104D50009A61634B0022DA61614B00221A62604B58
:104D60001800FCF767FF031E01D0FFF785FD7B6885
:104D70005B4ADA675A4B7A689A62002203211B2049
:104D8000FDF778FA1B20FDF78AFAD4E17B681B68EF
:104D9000554A934200D0B1E030217B1802221A60BC
:104DA0007B1800229A607B181800FCF727FC031E72
:104DB00001D0FFF761FD474BDA6B464B802189023A
:104DC0000A43DA63434BDA6B80239B0213407B6216
:104DD0007B6A404B5A6B3F4B01210A435A633D4B60
:104DE0005B6B012213403B623B6A64217B180C22FF
:104DF0001A607B1802225A607B1800229A607B1886
:104E00000022DA607B1801221A617A18A023DB05E0
:104E100011001800FCF7AAFD344B354A1A60334BD9
:104E200034225A60314B00229A60304B0022DA6003
:104E30002E4B80221A612D4B00225A612B4B0022EF
:104E40009A612A4B0022DA61284B00221A62274B12
:104E50001800FCF7EFFE031E01D0FFF70DFD7B6885
:104E60008021224A5A50214B7A689A62214B224A69
:104E70001A60204B35225A601E4B10229A601D4B3F
:104E80000022DA601B4B80221A611A4B00225A6101
:104E9000184B00229A61174B0022DA61154B002251
:104EA0001A62144B1800FCF7C5FE031E01D0FFF771
:104EB000E3FC7B680F4ADA670E4B7A689A6200223D
:104EC00003211C20FDF7D6F91C20FDF7E8F932E19B
:104ED0000038014000100240F40F0020080002409A
:104EE000501000201C00024000440040AC10002084
:104EF0003000024008110020440002407B681B681B
:104F00008F4A934200D0AEE08E4BDA6B8D4B8021FE
:104F1000C9020A43DA638B4BDA6B8023DB0213404E
:104F2000FB61FB69874B5A6B864B01210A435A632D
:104F3000844B5B6B01221340BB61BB69814B5A6B95
:104F4000804B02210A435A637E4B5B6B0222134063
:104F50007B617B6964243B1920221A603B19022281
:104F60005A603B1900229A603B190022DA603B1913
:104F700004221A613A19A023DB0511001800FCF77E
:104F8000F5FC21007B1801221A607B1802225A606E
:104F90007B1800229A607B180022DA607B180422BA
:104FA0001A617B18684A19001000FCF7DFFC674B98
:104FB000674A1A60654B36225A60644B00229A6039
:104FC000624B0022DA60614B80221A615F4B002243
:104FD0005A615E4B00229A615C4B0022DA615B4BA6
:104FE00000221A62594B1800FCF724FE031E01D060
:104FF000FFF742FC7B688021544A5A50534B7A6831
:105000009A62544B544A1A60524B37225A60514BA1
:1050100010229A604F4B0022DA604E4B80221A61B8
:105020004C4B00225A614B4B00229A61494B0022A3
:10503000DA61484B00221A62464B1800FCF7FAFD71
:10504000031E01D0FFF718FC7B68424ADA67414B28
:105050007A689A62002203211D20FDF70BF91D20BA
:10506000FDF71DF967E07B681B683C4A934262D1FB
:10507000344BDA6B334B802109030A43DA63314B3B
:10508000DA6B80231B0313403B613B692D4B5A6B4A
:105090002C4B01210A435A632A4B5B6B01221340BC
:1050A000FB60FB6864217B1803221A607B180222D4
:1050B0005A607B1800229A607B180022DA607B1805
:1050C00004221A617A18A023DB0511001800FCF7EE
:1050D0004DFC234B234A1A60214B38225A60204B47
:1050E00000229A601E4B0022DA601D4B80221A615A
:1050F0001B4B00225A611A4B00229A61184B002266
:10510000DA61174B00221A62154B1800FCF792FD6A
:10511000031E01D0FFF7B0FB7B688021104A5A5074
:105120000F4B7A689A62002203211D20FDF7A2F836
:105130001D20FDF7B4F8C046BD461FB090BDC04667
:10514000004800400010024000040050641100209C
:1051500058000240C01100206C000240004C00408A
:105160001C1200208000024080B500AFC046FDE761
:1051700080B500AFC046FDE780B500AF034B180017
:10518000FCF7AEFEC046BD4680BDC046F40F002011
:1051900080B500AF054B1800FCF7A2FE044B1800C9
:1051A000FCF79EFEC046BD4680BDC04650100020A4
:1051B000AC10002080B500AF094B1800FCF790FE42
:1051C000084B1800FCF78CFE074B1800FCF788FE14
:1051D000064B1800FCF784FEC046BD4680BDC046A5
:1051E0000811002064110020C01100201C120020B2
:1051F00080B500AF034B1800FBF75CFAC046BD4614
:1052000080BDC0467812002080B500AF034B180067
:10521000FDF7E8F8C046BD4680BDC046A40D00209D
:1052200080B500AF034B1800FDF7DCF8C046BD4663
:1052300080BDC046380E002080B500AF054B180079
:10524000FDF7D0F8044B1800FDF7CCF8C046BD467A
:1052500080BDC046CC0E0020600F002080B582B01B
:1052600000AF124B1A6C114B01210A431A640F4B09
:105270001B6C012213407B607B680C4BDA6B0B4B81
:10528000802149050A43DA63084BDA6B80235B050A
:1052900013403B603B6802235B420022032118005D
:1052A000FCF7E8FFC046BD4602B080BD00100240DA
:1052B000B0B58CB000AF78602B23FB1800221A70B9
:1052C000384B1A6C374B8021C9020A431A64354B9C
:1052D0001A6C8023DB021340BB60BB680C23FA18F6
:1052E00010243B1911001800FCF75EF93B19DB682C
:1052F0007B627B6A002B04D1FCF740F90300FB6260
:1053000004E0FCF73BF903005B00FB62FB6A264903
:105310001800FAF7D5FE0300013B3B62234B244AF9
:105320001A60224B234ADA60204B3A6A5A601F4BBC
:1053300000221A611D4B00229A601C4B00229A61C8
:105340002B257C19194B1800FBF7F7F80300237085
:105350007B191B78002B1ED17C19144B1800FBF70E
:105360004DF9030023707B191B78002B13D11620F5
:10537000FCF795FF7B68032B09D87B680022190096
:105380001620FCF777FF0C4B7A681A6003E02B239A
:10539000FB1801221A702B23FB181B781800BD463E
:1053A0000CB0B0BD0010024040420F007812002047
:1053B00000480140E7030000040000200D48854636
:1053C000FBF7B6F80C480D490D4A002302E0D4580B
:1053D000C4500433C4188C42F9D30A4A0A4C00233F
:1053E00001E013600432A242FBD3FBF77DF8FFF724
:1053F000BFF9FEE700900020000000201000002010
:105400008056000810000020C4120020FEE70000B3
:10541000F0B557464E464546DE46E0B504000D0061
:105420009246994683B08B4230D82DD0494650469B
:10543000FAF7DCFF290006002000FAF7D7FF331A3D
:105440009846203B34D49B4653465A4693404246A6
:105450001F00534693401E00AF423BD8AF4200D1DD
:1054600079E05B46A41BBD41002B00DA76E0002208
:1054700000230092019301235A4693400193012394
:1054800042469340009329E08242CFD90022002374
:10549000009201930C9B002B01D01C605D60009872
:1054A000019903B0F0BCBB46B246A946A046F0BD88
:1054B00042469B4620239B1A5246DA40414613003F
:1054C0004A468A40170042461F43534693401E00F7
:1054D000AF42C3D900220023009201934346002B20
:1054E000D8D0FB0772081A4346467B080EE0AB4251
:1054F00001D1A2420CD8A41A9D41012024196D416A
:105500000021013E24184D41002E06D0AB42EED9B9
:10551000013E24196D41002EF8D1009801995B4697
:1055200000196941002B24DB2B005A464446D34026
:105530002A00E2401C005B461500002B2ADB2600F7
:105540009E40330026004746BE403200801A9941F3
:10555000009001919EE7A342BCD882E742462023F7
:1055600000219B1A0022009101920122DA4001924F
:1055700085E7424620239B1A2A0046469A4023008C
:10558000F340444613432A00E2401C005B461500EA
:10559000002BD4DA42462F002023260097409B1A86
:1055A000DE403B003343CDE7F8B5C046F8BC08BC4D
:1055B0009E467047F8B5C046F8BC08BC9E4670478A
:1055C00049444C450000000064656661756C745484
:1055D00061736B00C8550008154900080000000001
:1055E000000000008000000000000000000000003B
:1055F00000000000000000000000000000000000AB
:105600000000000000000000010000000200000097
:105610000300000004000000060000000700000076
:105620000800000009000000000000000000000069
:105630000000000000000000010000000200000067
:105640000300000004000000010002000400060046
:1056500008000A000C00100020004000800000013B
:10566000010101030701000008040204080101010F
:08567000A0FDFF7F0100000016
:04567800B50400086D
:04567C008904000895
:105680000024F4000400000001000000AAAAAAAA55
:04000005080053BDDF
:00000001FF
